{
  "contractName": "TipJar",
  "abi": [
    {
      "constant": false,
      "inputs": [
        {
          "name": "_hash",
          "type": "bytes32"
        }
      ],
      "name": "send",
      "outputs": [],
      "payable": true,
      "stateMutability": "payable",
      "type": "function"
    },
    {
      "constant": false,
      "inputs": [
        {
          "name": "_id",
          "type": "string"
        }
      ],
      "name": "claim",
      "outputs": [],
      "payable": false,
      "stateMutability": "nonpayable",
      "type": "function"
    }
  ],
  "bytecode": "0x608060405234801561001057600080fd5b50610270806100206000396000f3fe6080604052600436106100295760003560e01c8063f3fe12c91461002e578063fe52b246146100f6575b600080fd5b34801561003a57600080fd5b506100f46004803603602081101561005157600080fd5b810190808035906020019064010000000081111561006e57600080fd5b82018360208201111561008057600080fd5b803590602001918460018302840111640100000000831117156100a257600080fd5b91908080601f016020809104026020016040519081016040528093929190818152602001838380828437600081840152601f19601f820116905080830192505050505050509192919290505050610124565b005b6101226004803603602081101561010c57600080fd5b810190808035906020019092919050505061022a565b005b6000816040516020018082805190602001908083835b6020831061015d578051825260208201915060208101905060208303925061013a565b6001836020036101000a03801982511681845116808217855250505050505090500191505060405160208183030381529060405280519060200120905060008060008381526020019081526020016000205414610226573373ffffffffffffffffffffffffffffffffffffffff166108fc600080848152602001908152602001600020549081150290604051600060405180830381858888f1935050505015801561020c573d6000803e3d6000fd5b506000806000838152602001908152602001600020819055505b5050565b34600080838152602001908152602001600020819055505056fea165627a7a72305820902ca41584d81058fa3430afcbd49caf0fdf401136613c19860038c0332ff0940029",
  "source": "pragma solidity >=0.4.22 <0.7.0;\ncontract TipJar {\n    \n    mapping (bytes32 => uint) tips;\n    \n    function send(bytes32 _hash) public payable {\n        tips[_hash] = msg.value;\n    }\n    \n    function claim(string memory _id) public {\n        bytes32 hash = keccak256(abi.encodePacked(_id));\n        if (tips[hash] != 0) {\n            msg.sender.transfer(tips[hash]);\n            tips[hash] = 0;\n        }\n    }\n    \n}",
  "sourcePath": "/Users/fredpilkington/code/tipjar-dapp/contracts/TipJar.sol",
  "compiler": {
    "name": "solc",
    "version": "0.5.8+commit.23d335f2.Emscripten.clang"
  },
  "schemaVersion": "3.0.16",
  "updatedAt": "2020-02-26T17:47:21.982Z",
  "devdoc": {
    "methods": {}
  },
  "userdoc": {
    "methods": {}
  }
}